{
  "_format": "hh-sol-artifact-1",
  "contractName": "MultiSigWallet",
  "sourceName": "contracts/multisig.sol",
  "abi": [
    {
      "inputs": [
        {
          "internalType": "address[]",
          "name": "_owners",
          "type": "address[]"
        },
        {
          "internalType": "uint256",
          "name": "_numConfirmationsRequired",
          "type": "uint256"
        }
      ],
      "stateMutability": "nonpayable",
      "type": "constructor"
    },
    {
      "anonymous": false,
      "inputs": [
        {
          "indexed": true,
          "internalType": "address",
          "name": "owner",
          "type": "address"
        },
        {
          "indexed": true,
          "internalType": "uint256",
          "name": "txIndex",
          "type": "uint256"
        }
      ],
      "name": "ConfirmTransaction",
      "type": "event"
    },
    {
      "anonymous": false,
      "inputs": [
        {
          "indexed": true,
          "internalType": "address",
          "name": "sender",
          "type": "address"
        },
        {
          "indexed": false,
          "internalType": "uint256",
          "name": "amount",
          "type": "uint256"
        },
        {
          "indexed": false,
          "internalType": "uint256",
          "name": "balance",
          "type": "uint256"
        }
      ],
      "name": "Deposit",
      "type": "event"
    },
    {
      "anonymous": false,
      "inputs": [
        {
          "indexed": true,
          "internalType": "address",
          "name": "owner",
          "type": "address"
        },
        {
          "indexed": true,
          "internalType": "uint256",
          "name": "txIndex",
          "type": "uint256"
        }
      ],
      "name": "ExecuteTransaction",
      "type": "event"
    },
    {
      "anonymous": false,
      "inputs": [
        {
          "indexed": true,
          "internalType": "address",
          "name": "owner",
          "type": "address"
        },
        {
          "indexed": true,
          "internalType": "uint256",
          "name": "txIndex",
          "type": "uint256"
        }
      ],
      "name": "RevokeTransaction",
      "type": "event"
    },
    {
      "anonymous": false,
      "inputs": [
        {
          "indexed": true,
          "internalType": "address",
          "name": "owner",
          "type": "address"
        },
        {
          "indexed": true,
          "internalType": "uint256",
          "name": "txIndex",
          "type": "uint256"
        },
        {
          "indexed": true,
          "internalType": "address",
          "name": "to",
          "type": "address"
        },
        {
          "indexed": false,
          "internalType": "uint256",
          "name": "value",
          "type": "uint256"
        },
        {
          "indexed": false,
          "internalType": "bytes",
          "name": "data",
          "type": "bytes"
        }
      ],
      "name": "SubmitTransaction",
      "type": "event"
    },
    {
      "inputs": [],
      "name": "DepositETH",
      "outputs": [],
      "stateMutability": "payable",
      "type": "function"
    },
    {
      "inputs": [
        {
          "internalType": "address",
          "name": "add",
          "type": "address"
        }
      ],
      "name": "GetBalance",
      "outputs": [
        {
          "internalType": "uint256",
          "name": "",
          "type": "uint256"
        }
      ],
      "stateMutability": "view",
      "type": "function"
    },
    {
      "inputs": [],
      "name": "GetNumconfirmationrequired",
      "outputs": [
        {
          "internalType": "uint256",
          "name": "",
          "type": "uint256"
        }
      ],
      "stateMutability": "view",
      "type": "function"
    },
    {
      "inputs": [],
      "name": "GetsmartcontractBalance",
      "outputs": [
        {
          "internalType": "uint256",
          "name": "",
          "type": "uint256"
        }
      ],
      "stateMutability": "view",
      "type": "function"
    },
    {
      "inputs": [
        {
          "internalType": "uint256",
          "name": "_txIndex",
          "type": "uint256"
        }
      ],
      "name": "confirmTransaction",
      "outputs": [],
      "stateMutability": "nonpayable",
      "type": "function"
    },
    {
      "inputs": [
        {
          "internalType": "uint256",
          "name": "_txIndex",
          "type": "uint256"
        }
      ],
      "name": "executeTransaction",
      "outputs": [],
      "stateMutability": "nonpayable",
      "type": "function"
    },
    {
      "inputs": [],
      "name": "getOwners",
      "outputs": [
        {
          "internalType": "address[]",
          "name": "",
          "type": "address[]"
        }
      ],
      "stateMutability": "view",
      "type": "function"
    },
    {
      "inputs": [
        {
          "internalType": "uint256",
          "name": "_txIndex",
          "type": "uint256"
        }
      ],
      "name": "getTransaction",
      "outputs": [
        {
          "internalType": "address",
          "name": "to",
          "type": "address"
        },
        {
          "internalType": "uint256",
          "name": "value",
          "type": "uint256"
        },
        {
          "internalType": "bytes",
          "name": "data",
          "type": "bytes"
        },
        {
          "internalType": "bool",
          "name": "executed",
          "type": "bool"
        },
        {
          "internalType": "uint256",
          "name": "numConfirmations",
          "type": "uint256"
        }
      ],
      "stateMutability": "view",
      "type": "function"
    },
    {
      "inputs": [],
      "name": "getTransactionCount",
      "outputs": [
        {
          "internalType": "uint256",
          "name": "",
          "type": "uint256"
        }
      ],
      "stateMutability": "view",
      "type": "function"
    },
    {
      "inputs": [
        {
          "internalType": "uint256",
          "name": "",
          "type": "uint256"
        },
        {
          "internalType": "address",
          "name": "",
          "type": "address"
        }
      ],
      "name": "isConfirmed",
      "outputs": [
        {
          "internalType": "bool",
          "name": "",
          "type": "bool"
        }
      ],
      "stateMutability": "view",
      "type": "function"
    },
    {
      "inputs": [
        {
          "internalType": "address",
          "name": "",
          "type": "address"
        }
      ],
      "name": "isOwner",
      "outputs": [
        {
          "internalType": "bool",
          "name": "",
          "type": "bool"
        }
      ],
      "stateMutability": "view",
      "type": "function"
    },
    {
      "inputs": [
        {
          "internalType": "uint256",
          "name": "",
          "type": "uint256"
        }
      ],
      "name": "owners",
      "outputs": [
        {
          "internalType": "address",
          "name": "",
          "type": "address"
        }
      ],
      "stateMutability": "view",
      "type": "function"
    },
    {
      "inputs": [
        {
          "internalType": "uint256",
          "name": "_txIndex",
          "type": "uint256"
        }
      ],
      "name": "revokeConfirmation",
      "outputs": [],
      "stateMutability": "nonpayable",
      "type": "function"
    },
    {
      "inputs": [
        {
          "internalType": "address",
          "name": "_to",
          "type": "address"
        },
        {
          "internalType": "uint256",
          "name": "_value",
          "type": "uint256"
        },
        {
          "internalType": "bytes",
          "name": "_data",
          "type": "bytes"
        }
      ],
      "name": "submitTransaction",
      "outputs": [],
      "stateMutability": "nonpayable",
      "type": "function"
    },
    {
      "inputs": [
        {
          "internalType": "uint256",
          "name": "",
          "type": "uint256"
        }
      ],
      "name": "transactions",
      "outputs": [
        {
          "internalType": "address",
          "name": "to",
          "type": "address"
        },
        {
          "internalType": "uint256",
          "name": "value",
          "type": "uint256"
        },
        {
          "internalType": "bytes",
          "name": "data",
          "type": "bytes"
        },
        {
          "internalType": "bool",
          "name": "executed",
          "type": "bool"
        },
        {
          "internalType": "uint256",
          "name": "numConfirmations",
          "type": "uint256"
        }
      ],
      "stateMutability": "view",
      "type": "function"
    },
    {
      "stateMutability": "payable",
      "type": "receive"
    }
  ],
  "bytecode": "0x60806040523480156200001157600080fd5b50604051620029f7380380620029f783398181016040528101906200003791906200050d565b60008251116200007e576040517f08c379a00000000000000000000000000000000000000000000000000000000081526004016200007590620005d4565b60405180910390fd5b60008111801562000090575081518111155b620000d2576040517f08c379a0000000000000000000000000000000000000000000000000000000008152600401620000c9906200066c565b60405180910390fd5b60005b8251811015620002d4576000838281518110620000f757620000f66200068e565b5b60200260200101519050600073ffffffffffffffffffffffffffffffffffffffff168173ffffffffffffffffffffffffffffffffffffffff160362000173576040517f08c379a00000000000000000000000000000000000000000000000000000000081526004016200016a906200070d565b60405180910390fd5b600160008273ffffffffffffffffffffffffffffffffffffffff1673ffffffffffffffffffffffffffffffffffffffff16815260200190815260200160002060009054906101000a900460ff161562000203576040517f08c379a0000000000000000000000000000000000000000000000000000000008152600401620001fa906200077f565b60405180910390fd5b60018060008373ffffffffffffffffffffffffffffffffffffffff1673ffffffffffffffffffffffffffffffffffffffff16815260200190815260200160002060006101000a81548160ff0219169083151502179055506000819080600181540180825580915050600190039060005260206000200160009091909190916101000a81548173ffffffffffffffffffffffffffffffffffffffff021916908373ffffffffffffffffffffffffffffffffffffffff160217905550508080620002cb90620007d0565b915050620000d5565b508060028190555050506200081d565b6000604051905090565b600080fd5b600080fd5b600080fd5b6000601f19601f8301169050919050565b7f4e487b7100000000000000000000000000000000000000000000000000000000600052604160045260246000fd5b6200034882620002fd565b810181811067ffffffffffffffff821117156200036a57620003696200030e565b5b80604052505050565b60006200037f620002e4565b90506200038d82826200033d565b919050565b600067ffffffffffffffff821115620003b057620003af6200030e565b5b602082029050602081019050919050565b600080fd5b600073ffffffffffffffffffffffffffffffffffffffff82169050919050565b6000620003f382620003c6565b9050919050565b6200040581620003e6565b81146200041157600080fd5b50565b6000815190506200042581620003fa565b92915050565b6000620004426200043c8462000392565b62000373565b90508083825260208201905060208402830185811115620004685762000467620003c1565b5b835b8181101562000495578062000480888262000414565b8452602084019350506020810190506200046a565b5050509392505050565b600082601f830112620004b757620004b6620002f8565b5b8151620004c98482602086016200042b565b91505092915050565b6000819050919050565b620004e781620004d2565b8114620004f357600080fd5b50565b6000815190506200050781620004dc565b92915050565b60008060408385031215620005275762000526620002ee565b5b600083015167ffffffffffffffff811115620005485762000547620002f3565b5b62000556858286016200049f565b92505060206200056985828601620004f6565b9150509250929050565b600082825260208201905092915050565b7f6174206c65617374206f6e65206f776e65722072657175697265640000000000600082015250565b6000620005bc601b8362000573565b9150620005c98262000584565b602082019050919050565b60006020820190508181036000830152620005ef81620005ad565b9050919050565b7f696e76616c6964206e756d626572206f6620726571756972656420636f6e666960008201527f726d6174696f6e7320696e20636f6e7374727563746f72000000000000000000602082015250565b60006200065460378362000573565b91506200066182620005f6565b604082019050919050565b60006020820190508181036000830152620006878162000645565b9050919050565b7f4e487b7100000000000000000000000000000000000000000000000000000000600052603260045260246000fd5b7f496e76616c6964206f776e657200000000000000000000000000000000000000600082015250565b6000620006f5600d8362000573565b91506200070282620006bd565b602082019050919050565b600060208201905081810360008301526200072881620006e6565b9050919050565b7f6f776e6572206e6f7420756e6971756500000000000000000000000000000000600082015250565b60006200076760108362000573565b915062000774826200072f565b602082019050919050565b600060208201905081810360008301526200079a8162000758565b9050919050565b7f4e487b7100000000000000000000000000000000000000000000000000000000600052601160045260246000fd5b6000620007dd82620004d2565b91507fffffffffffffffffffffffffffffffffffffffffffffffffffffffffffffffff8203620008125762000811620007a1565b5b600182019050919050565b6121ca806200082d6000396000f3fe6080604052600436106100ec5760003560e01c80639ace38c21161008a578063da64057611610059578063da6405761461033f578063ee22610b1461036a578063fba246de14610393578063fd725b841461039d576100f3565b80639ace38c214610281578063a0e67e2b146102c2578063c01a8c84146102ed578063c642747414610316576100f3565b80632f54bf6e116100c65780632f54bf6e1461018957806333ea3dc8146101c657806343e2e5041461020757806380f59a6514610244576100f3565b8063025e7c27146100f857806320ea8d86146101355780632e7700f01461015e576100f3565b366100f357005b600080fd5b34801561010457600080fd5b5061011f600480360381019061011a91906113d0565b6103c8565b60405161012c919061143e565b60405180910390f35b34801561014157600080fd5b5061015c600480360381019061015791906113d0565b610407565b005b34801561016a57600080fd5b506101736106e1565b6040516101809190611468565b60405180910390f35b34801561019557600080fd5b506101b060048036038101906101ab91906114af565b6106ee565b6040516101bd91906114f7565b60405180910390f35b3480156101d257600080fd5b506101ed60048036038101906101e891906113d0565b61070e565b6040516101fe9594939291906115a2565b60405180910390f35b34801561021357600080fd5b5061022e600480360381019061022991906114af565b610821565b60405161023b9190611468565b60405180910390f35b34801561025057600080fd5b5061026b600480360381019061026691906115fc565b610855565b60405161027891906114f7565b60405180910390f35b34801561028d57600080fd5b506102a860048036038101906102a391906113d0565b610884565b6040516102b99594939291906115a2565b60405180910390f35b3480156102ce57600080fd5b506102d761097f565b6040516102e491906116fa565b60405180910390f35b3480156102f957600080fd5b50610314600480360381019061030f91906113d0565b610a0d565b005b34801561032257600080fd5b5061033d60048036038101906103389190611851565b610cea565b005b34801561034b57600080fd5b50610354610eed565b6040516103619190611468565b60405180910390f35b34801561037657600080fd5b50610391600480360381019061038c91906113d0565b610f81565b005b61039b61127d565b005b3480156103a957600080fd5b506103b261137c565b6040516103bf9190611468565b60405180910390f35b600081815481106103d857600080fd5b906000526020600020016000915054906101000a900473ffffffffffffffffffffffffffffffffffffffff1681565b600160003373ffffffffffffffffffffffffffffffffffffffff1673ffffffffffffffffffffffffffffffffffffffff16815260200190815260200160002060009054906101000a900460ff16610493576040517f08c379a000000000000000000000000000000000000000000000000000000000815260040161048a9061191d565b60405180910390fd5b8060048054905081106104db576040517f08c379a00000000000000000000000000000000000000000000000000000000081526004016104d290611989565b60405180910390fd5b81600481815481106104f0576104ef6119a9565b5b906000526020600020906005020160030160009054906101000a900460ff161561054f576040517f08c379a000000000000000000000000000000000000000000000000000000000815260040161054690611a24565b60405180910390fd5b600060048481548110610565576105646119a9565b5b906000526020600020906005020190506003600085815260200190815260200160002060003373ffffffffffffffffffffffffffffffffffffffff1673ffffffffffffffffffffffffffffffffffffffff16815260200190815260200160002060009054906101000a900460ff16610612576040517f08c379a000000000000000000000000000000000000000000000000000000000815260040161060990611a90565b60405180910390fd5b60018160040160008282546106279190611adf565b9250508190555060006003600086815260200190815260200160002060003373ffffffffffffffffffffffffffffffffffffffff1673ffffffffffffffffffffffffffffffffffffffff16815260200190815260200160002060006101000a81548160ff021916908315150217905550833373ffffffffffffffffffffffffffffffffffffffff167f1ad870073a851011d852bccd8634c29c7c0ac2265ba96d2bab01285001a465a860405160405180910390a350505050565b6000600480549050905090565b60016020528060005260406000206000915054906101000a900460ff1681565b600080606060008060006004878154811061072c5761072b6119a9565b5b906000526020600020906005020190508060000160009054906101000a900473ffffffffffffffffffffffffffffffffffffffff168160010154826002018360030160009054906101000a900460ff16846004015482805461078d90611b42565b80601f01602080910402602001604051908101604052809291908181526020018280546107b990611b42565b80156108065780601f106107db57610100808354040283529160200191610806565b820191906000526020600020905b8154815290600101906020018083116107e957829003601f168201915b50505050509250955095509550955095505091939590929450565b6000670de0b6b3a76400008273ffffffffffffffffffffffffffffffffffffffff163161084e9190611ba2565b9050919050565b60036020528160005260406000206020528060005260406000206000915091509054906101000a900460ff1681565b6004818154811061089457600080fd5b90600052602060002090600502016000915090508060000160009054906101000a900473ffffffffffffffffffffffffffffffffffffffff16908060010154908060020180546108e390611b42565b80601f016020809104026020016040519081016040528092919081815260200182805461090f90611b42565b801561095c5780601f106109315761010080835404028352916020019161095c565b820191906000526020600020905b81548152906001019060200180831161093f57829003601f168201915b5050505050908060030160009054906101000a900460ff16908060040154905085565b60606000805480602002602001604051908101604052809291908181526020018280548015610a0357602002820191906000526020600020905b8160009054906101000a900473ffffffffffffffffffffffffffffffffffffffff1673ffffffffffffffffffffffffffffffffffffffff16815260200190600101908083116109b9575b5050505050905090565b600160003373ffffffffffffffffffffffffffffffffffffffff1673ffffffffffffffffffffffffffffffffffffffff16815260200190815260200160002060009054906101000a900460ff16610a99576040517f08c379a0000000000000000000000000000000000000000000000000000000008152600401610a909061191d565b60405180910390fd5b806004805490508110610ae1576040517f08c379a0000000000000000000000000000000000000000000000000000000008152600401610ad890611989565b60405180910390fd5b8160048181548110610af657610af56119a9565b5b906000526020600020906005020160030160009054906101000a900460ff1615610b55576040517f08c379a0000000000000000000000000000000000000000000000000000000008152600401610b4c90611a24565b60405180910390fd5b826003600082815260200190815260200160002060003373ffffffffffffffffffffffffffffffffffffffff1673ffffffffffffffffffffffffffffffffffffffff16815260200190815260200160002060009054906101000a900460ff1615610bf4576040517f08c379a0000000000000000000000000000000000000000000000000000000008152600401610beb90611c1f565b60405180910390fd5b600060048581548110610c0a57610c096119a9565b5b906000526020600020906005020190506001816004016000828254610c2f9190611c3f565b9250508190555060016003600087815260200190815260200160002060003373ffffffffffffffffffffffffffffffffffffffff1673ffffffffffffffffffffffffffffffffffffffff16815260200190815260200160002060006101000a81548160ff021916908315150217905550843373ffffffffffffffffffffffffffffffffffffffff167f5cbe105e36805f7820e291f799d5794ff948af2a5f664e580382defb6339004160405160405180910390a35050505050565b600160003373ffffffffffffffffffffffffffffffffffffffff1673ffffffffffffffffffffffffffffffffffffffff16815260200190815260200160002060009054906101000a900460ff16610d76576040517f08c379a0000000000000000000000000000000000000000000000000000000008152600401610d6d9061191d565b60405180910390fd5b6000600480549050905060046040518060a001604052808673ffffffffffffffffffffffffffffffffffffffff1681526020018581526020018481526020016000151581526020016000815250908060018154018082558091505060019003906000526020600020906005020160009091909190915060008201518160000160006101000a81548173ffffffffffffffffffffffffffffffffffffffff021916908373ffffffffffffffffffffffffffffffffffffffff160217905550602082015181600101556040820151816002019081610e529190611e1f565b5060608201518160030160006101000a81548160ff0219169083151502179055506080820151816004015550508373ffffffffffffffffffffffffffffffffffffffff16813373ffffffffffffffffffffffffffffffffffffffff167fd5a05bf70715ad82a09a756320284a1b54c9ff74cd0f8cce6219e79b563fe59d8686604051610edf929190611ef1565b60405180910390a450505050565b6000600160003373ffffffffffffffffffffffffffffffffffffffff1673ffffffffffffffffffffffffffffffffffffffff16815260200190815260200160002060009054906101000a900460ff16610f7b576040517f08c379a0000000000000000000000000000000000000000000000000000000008152600401610f729061191d565b60405180910390fd5b47905090565b600160003373ffffffffffffffffffffffffffffffffffffffff1673ffffffffffffffffffffffffffffffffffffffff16815260200190815260200160002060009054906101000a900460ff1661100d576040517f08c379a00000000000000000000000000000000000000000000000000000000081526004016110049061191d565b60405180910390fd5b806004805490508110611055576040517f08c379a000000000000000000000000000000000000000000000000000000000815260040161104c90611989565b60405180910390fd5b816004818154811061106a576110696119a9565b5b906000526020600020906005020160030160009054906101000a900460ff16156110c9576040517f08c379a00000000000000000000000000000000000000000000000000000000081526004016110c090611a24565b60405180910390fd5b6000600484815481106110df576110de6119a9565b5b9060005260206000209060050201905060025481600401541015611138576040517f08c379a000000000000000000000000000000000000000000000000000000000815260040161112f90611f93565b60405180910390fd5b60018160030160006101000a81548160ff02191690831515021790555060008160000160009054906101000a900473ffffffffffffffffffffffffffffffffffffffff1673ffffffffffffffffffffffffffffffffffffffff16614e208360010154846002016040516111ab9190612041565b600060405180830381858888f193505050503d80600081146111e9576040519150601f19603f3d011682016040523d82523d6000602084013e6111ee565b606091505b5050905080611232576040517f08c379a0000000000000000000000000000000000000000000000000000000008152600401611229906120a4565b60405180910390fd5b843373ffffffffffffffffffffffffffffffffffffffff167f5445f318f4f5fcfb66592e68e0cc5822aa15664039bd5f0ffde24c5a8142b1ac60405160405180910390a35050505050565b60003073ffffffffffffffffffffffffffffffffffffffff16346040516112a3906120ea565b60006040518083038185875af1925050503d80600081146112e0576040519150601f19603f3d011682016040523d82523d6000602084013e6112e5565b606091505b5050905080611329576040517f08c379a00000000000000000000000000000000000000000000000000000000081526004016113209061214b565b60405180910390fd5b3373ffffffffffffffffffffffffffffffffffffffff167f90890809c654f11d6e72a28fa60149770a0d11ec6c92319d6ceb2bb0a4ea1a15344760405161137192919061216b565b60405180910390a250565b6000600254905090565b6000604051905090565b600080fd5b600080fd5b6000819050919050565b6113ad8161139a565b81146113b857600080fd5b50565b6000813590506113ca816113a4565b92915050565b6000602082840312156113e6576113e5611390565b5b60006113f4848285016113bb565b91505092915050565b600073ffffffffffffffffffffffffffffffffffffffff82169050919050565b6000611428826113fd565b9050919050565b6114388161141d565b82525050565b6000602082019050611453600083018461142f565b92915050565b6114628161139a565b82525050565b600060208201905061147d6000830184611459565b92915050565b61148c8161141d565b811461149757600080fd5b50565b6000813590506114a981611483565b92915050565b6000602082840312156114c5576114c4611390565b5b60006114d38482850161149a565b91505092915050565b60008115159050919050565b6114f1816114dc565b82525050565b600060208201905061150c60008301846114e8565b92915050565b600081519050919050565b600082825260208201905092915050565b60005b8381101561154c578082015181840152602081019050611531565b60008484015250505050565b6000601f19601f8301169050919050565b600061157482611512565b61157e818561151d565b935061158e81856020860161152e565b61159781611558565b840191505092915050565b600060a0820190506115b7600083018861142f565b6115c46020830187611459565b81810360408301526115d68186611569565b90506115e560608301856114e8565b6115f26080830184611459565b9695505050505050565b6000806040838503121561161357611612611390565b5b6000611621858286016113bb565b92505060206116328582860161149a565b9150509250929050565b600081519050919050565b600082825260208201905092915050565b6000819050602082019050919050565b6116718161141d565b82525050565b60006116838383611668565b60208301905092915050565b6000602082019050919050565b60006116a78261163c565b6116b18185611647565b93506116bc83611658565b8060005b838110156116ed5781516116d48882611677565b97506116df8361168f565b9250506001810190506116c0565b5085935050505092915050565b60006020820190508181036000830152611714818461169c565b905092915050565b600080fd5b600080fd5b7f4e487b7100000000000000000000000000000000000000000000000000000000600052604160045260246000fd5b61175e82611558565b810181811067ffffffffffffffff8211171561177d5761177c611726565b5b80604052505050565b6000611790611386565b905061179c8282611755565b919050565b600067ffffffffffffffff8211156117bc576117bb611726565b5b6117c582611558565b9050602081019050919050565b82818337600083830152505050565b60006117f46117ef846117a1565b611786565b9050828152602081018484840111156118105761180f611721565b5b61181b8482856117d2565b509392505050565b600082601f8301126118385761183761171c565b5b81356118488482602086016117e1565b91505092915050565b60008060006060848603121561186a57611869611390565b5b60006118788682870161149a565b9350506020611889868287016113bb565b925050604084013567ffffffffffffffff8111156118aa576118a9611395565b5b6118b686828701611823565b9150509250925092565b600082825260208201905092915050565b7f4e6f7420746865206f776e657200000000000000000000000000000000000000600082015250565b6000611907600d836118c0565b9150611912826118d1565b602082019050919050565b60006020820190508181036000830152611936816118fa565b9050919050565b7f7472616e73616374696f6e20646f6573206e6f74206578697374000000000000600082015250565b6000611973601a836118c0565b915061197e8261193d565b602082019050919050565b600060208201905081810360008301526119a281611966565b9050919050565b7f4e487b7100000000000000000000000000000000000000000000000000000000600052603260045260246000fd5b7f747820616c726561647920657863757465640000000000000000000000000000600082015250565b6000611a0e6012836118c0565b9150611a19826119d8565b602082019050919050565b60006020820190508181036000830152611a3d81611a01565b9050919050565b7f7478206973206e6f7420636f6e6669726d656400000000000000000000000000600082015250565b6000611a7a6013836118c0565b9150611a8582611a44565b602082019050919050565b60006020820190508181036000830152611aa981611a6d565b9050919050565b7f4e487b7100000000000000000000000000000000000000000000000000000000600052601160045260246000fd5b6000611aea8261139a565b9150611af58361139a565b9250828203905081811115611b0d57611b0c611ab0565b5b92915050565b7f4e487b7100000000000000000000000000000000000000000000000000000000600052602260045260246000fd5b60006002820490506001821680611b5a57607f821691505b602082108103611b6d57611b6c611b13565b5b50919050565b7f4e487b7100000000000000000000000000000000000000000000000000000000600052601260045260246000fd5b6000611bad8261139a565b9150611bb88361139a565b925082611bc857611bc7611b73565b5b828204905092915050565b7f747820616c726561647920636f6e6669726d6564000000000000000000000000600082015250565b6000611c096014836118c0565b9150611c1482611bd3565b602082019050919050565b60006020820190508181036000830152611c3881611bfc565b9050919050565b6000611c4a8261139a565b9150611c558361139a565b9250828201905080821115611c6d57611c6c611ab0565b5b92915050565b60008190508160005260206000209050919050565b60006020601f8301049050919050565b600082821b905092915050565b600060088302611cd57fffffffffffffffffffffffffffffffffffffffffffffffffffffffffffffffff82611c98565b611cdf8683611c98565b95508019841693508086168417925050509392505050565b6000819050919050565b6000611d1c611d17611d128461139a565b611cf7565b61139a565b9050919050565b6000819050919050565b611d3683611d01565b611d4a611d4282611d23565b848454611ca5565b825550505050565b600090565b611d5f611d52565b611d6a818484611d2d565b505050565b5b81811015611d8e57611d83600082611d57565b600181019050611d70565b5050565b601f821115611dd357611da481611c73565b611dad84611c88565b81016020851015611dbc578190505b611dd0611dc885611c88565b830182611d6f565b50505b505050565b600082821c905092915050565b6000611df660001984600802611dd8565b1980831691505092915050565b6000611e0f8383611de5565b9150826002028217905092915050565b611e2882611512565b67ffffffffffffffff811115611e4157611e40611726565b5b611e4b8254611b42565b611e56828285611d92565b600060209050601f831160018114611e895760008415611e77578287015190505b611e818582611e03565b865550611ee9565b601f198416611e9786611c73565b60005b82811015611ebf57848901518255600182019150602085019450602081019050611e9a565b86831015611edc5784890151611ed8601f891682611de5565b8355505b6001600288020188555050505b505050505050565b6000604082019050611f066000830185611459565b8181036020830152611f188184611569565b90509392505050565b7f2043616e7420657865757465207478206e6f7420656e6f75676820636f6e666960008201527f726d6174696f6e73000000000000000000000000000000000000000000000000602082015250565b6000611f7d6028836118c0565b9150611f8882611f21565b604082019050919050565b60006020820190508181036000830152611fac81611f70565b9050919050565b600081905092915050565b60008154611fcb81611b42565b611fd58186611fb3565b94506001821660008114611ff0576001811461200557612038565b60ff1983168652811515820286019350612038565b61200e85611c73565b60005b8381101561203057815481890152600182019150602081019050612011565b838801955050505b50505092915050565b600061204d8284611fbe565b915081905092915050565b7f7478206661696c65640000000000000000000000000000000000000000000000600082015250565b600061208e6009836118c0565b915061209982612058565b602082019050919050565b600060208201905081810360008301526120bd81612081565b9050919050565b50565b60006120d4600083611fb3565b91506120df826120c4565b600082019050919050565b60006120f5826120c7565b9150819050919050565b7f696e76616c696400000000000000000000000000000000000000000000000000600082015250565b60006121356007836118c0565b9150612140826120ff565b602082019050919050565b6000602082019050818103600083015261216481612128565b9050919050565b60006040820190506121806000830185611459565b61218d6020830184611459565b939250505056fea2646970667358221220804c6900cf84f3aa65dc1f4c64d1f8e7611314bbe1bda609c6ecc9d9ec9a179164736f6c63430008130033",
  "linkReferences": {},
  "deployedLinkReferences": {}
}